:020000040800F2
:10000000A0040020010100086D1700085115000828
:100010006917000849010008811700080000000066
:10002000000000000000000000000000751700083C
:100030004D01000800000000711700087917000842
:100040001B0100081B0100081B0100081B01000820
:100050001B0100081B0100081B0100081B01000810
:100060001B0100081B0100081B0100081B01000800
:100070001B0100081B0100081B0100081B010008F0
:100080001B0100081B0100081B0100081B010008E0
:100090001B0100081B0100081B0100081B010008D0
:1000A0001B0100081B0100081B0100081B010008C0
:1000B0001B0100081B0100081B0100081B010008B0
:1000C0001B0100081B0100081B0100081B010008A0
:1000D0001B0100081B0100081B0100081B01000890
:1000E0001B0100081B0100081B010008DFF80CD0F1
:1000F00000F018F800480047A5170008A0040020E9
:100100000648804706480047FEE7FEE7FEE7FEE7B1
:10011000FEE7FEE7FEE7FEE7FEE7FEE77D170008E5
:10012000ED000008064C074D06E0E06840F00103D2
:1001300094E8070098471034AC42F6D3FFF7DAFF93
:1001400094190008B4190008FEE700007047000089
:10015000EFF3108072B600BFFEE70000B0B50446B2
:1001600000F02AF9054640F20400C2F200000078CF
:10017000611C18BF044400BF00F01EF9401BA042E0
:10018000FAD3B0BD2DE9F04F82B00E68002E00F01A
:10019000038140F20C4C41F200424FF6FF7EC4F264
:1001A000010CC4F20102042700240123C1F2100E45
:1001B0004FF0000A4FF00009904208BF0327009754
:1001C00045E000BF012704F00C030F229A402BEA00
:1001D000020207FA03F34FEA9A051A4346F825206C
:1001E000D1F804B040F20045C4F201055FEACB3219
:1001F0002A6854BF22EA080242EA08022A606A68B2
:100200005FEA8B3354BF22EA080242EA08026A60BE
:100210005FEACB23AA6854BF22EA080242EA080236
:100220005FEA8B23AA60DCF800204FF0010354BF83
:1002300022EA080242EA0802CCF800200E680AF11D
:10024000010A36FA0AF204F1040400F0A58003FA68
:100250000AF816EA080FF1D04E68764512DC122E25
:1002600056D8DFE806F0350B4549555555555555D7
:10027000555555555555554D510000BFD1F80C9069
:1002800046E000BF4FF6FF72C1F2210296420FDC3A
:100290000022C1F2110296421AD00022C1F21202CB
:1002A000964215D00022C1F22102964210D02FE0D2
:1002B0000022C1F2220296420AD00022C1F231028B
:1002C000964205D00022C1F23202964220D100BFF0
:1002D0008A684AB1012A14BFC0F81480C0F810809F
:1002E0004FF0080914E000BF4FF0040910E000BF10
:1002F000CA6802F108090BE04FF0000908E000BFEE
:10030000CA6802F1040903E0CA6802F10C0900BFDF
:1003100022460646BAF1080F24BF203A0436376851
:100320000F25954027EA050509FA02F22A433260B3
:10033000CA79D2067FF582AF41F21803C4F20203F4
:100340001A6842F001021A601A6802F00102019272
:10035000019A40F20042C4F20102A2F57E762AF030
:10036000030256F802B040F60002C4F201029042C5
:1003700010D040F60042C4F2010290423FF422AF96
:1003800041F20002C4F20102009F904208BF02271E
:1003900019E700BF002716E702B0BDE8F08F0000A4
:1003A0008068084018BF012070470000002A08BF7D
:1003B000090401617047000040F29C00C2F2000095
:1003C0000068704740F2040040F29C01C2F2000055
:1003D000C2F2000100780A6810440860704700000B
:1003E00080B542F20000C4F20200016841F0100141
:1003F0000160032000F07AF80F2000F005F800F00B
:1004000027F8002080BD000070B540F20406C2F25B
:10041000000640F20C013278C2F200014FF47A7308
:100420000968B3FBF2F20446B1FBF2F1084600F0B2
:100430004FFB0F2C4FF0010508D838B94FF0FF30B3
:1004400021460022002500F025F87460284670BD82
:1004500082B041F21800C4F202000168022241F0A9
:1004600001010160016801F00101019101994168F8
:1004700041F080514160406800F080500090009849
:100480000420C4F20100016862F31A61016002B045
:100490007047000010B54EF60C5CCEF2000CDCF894
:1004A0000030C3F3022E8EF00704042C28BF04246E
:1004B000BEF103034FF0FF3E0EFA04F438BF0023F1
:1004C000A14399400EFA03F39A43114300F00F023F
:1004D00000F160430901043A03F5644362440028D3
:1004E00048BF02F10C03197010BD00004EF60C510C
:1004F000CEF200010A684FF6FF031A4060F30A22A9
:1005000042F0806040F0FD70086070472DE9F043D4
:1005100081B0002800F0858042F20008C4F2020891
:100520000446D8F800000D4600F0070088420CD2BF
:10053000D8F8000020F007002843C8F80000D8F8D9
:10054000000000F00700A8426BD1206841F20409C6
:100550008107C4F2020917D5410705D5D9F8001063
:1005600041F4E061C9F80010010705D5D9F8001081
:1005700041F46051C9F80010D9F80010A26821F0C8
:10058000F0011143C9F80010C00741D1D8F80000AC
:1005900000F00700A8420CD9D8F8000020F00700AE
:1005A0002843C8F80000D8F8000000F00700A8426F
:1005B00037D12068410707D5D9F80010E26821F447
:1005C000E0611143C9F80010000708D5D9F8000010
:1005D000216920F4605040EAC100C9F80000D9F850
:1005E000002002F00C00082841F20020C0F27A003E
:1005F00050D141F68213C2F38341C0F60003595C27
:10060000D2033BD440F60010C0F23D00484341E025
:10061000606802280AD001282AD159F8041C8903ED
:1006200008D4012001B0BDE8F08300BF59F8041CD4
:100630008901F6D5D9F8001021F003010843C9F863
:100640000000FFF7B9FE064641F28837D9F80000EE
:10065000616800F00C00B0EB810F97D0FFF7ACFEA3
:10066000801BB842F2D9032001B0BDE8F08300BF7F
:1006700059F8041C8907D4D5DCE700BFD9F800205D
:1006800041F66813C2F34042C0F600039A5C484347
:10069000B0FBF2F0D9F8001041F66A12C1F3031171
:1006A000C0F60002515C40F20C0220FA01F140F267
:1006B0000800C2F200000068C2F200021160FFF7F9
:1006C000A3FE002001B0BDE8F083000040F20C0062
:1006D00041F20401C2F20000C4F20201006809689C
:1006E00041F67A12C1F30221C0F60002515CC84003
:1006F0007047000040F20C0041F20401C2F2000019
:10070000C4F202010068096841F67A12C1F3C221FD
:10071000C0F60002515CC840704700002DE9F0416E
:1007200082B0002868D00446007841F20006C00775
:10073000C4F2020625D0706800F00C0004281BD01B
:10074000706800F00C00082802D17068C00313D450
:100750006068002800F06881B0F5A02F00F07C816F
:10076000B0F5803F00F07C81306820F4803030604C
:10077000306820F4802076E13068800301D560681D
:10078000D0B32078800718D5706810F00C0F07D010
:10079000706800F00C0008286ED17068C0036BD43C
:1007A0003068800702D52069012825D13068616949
:1007B00020F0F80040EAC1003060207800071FD424
:1007C0002078400732D4E56995B1706800F00C00DC
:1007D000082840F08F80012D0ED07068216A00F447
:1007E00080328A4208D1616A00F47010884203D1D5
:1007F000002002B0BDE8F081012002B0BDE8F08128
:10080000A069002862D00020C4F242200121C0F873
:100810008014FFF7D1FD0546706A800700F18C80D7
:10082000FFF7CAFD401B0228F6D92AE1F06910F053
:10083000805808D1F06940F08050F061F06900F014
:1008400080500090009847F20007C4F20007386813
:10085000C00529D4386840F480703860FFF7ACFDDB
:10086000054600BF3868C0051ED4FFF7A5FD401B34
:100870006428F7D905E100BF2069002840F2000094
:10088000C4F2422000F0828001210160FFF794FD54
:10089000054600BF306880073FF588AFFFF78CFD45
:1008A000401B0228F6D9ECE0E068002800F08080C8
:1008B000052800F09780012800F09880306A20F029
:1008C00001003062306A20F0040092E00020C4F29F
:1008D00042200021C0F88014FFF76EFD054600BFDE
:1008E000706A80077FF56CAFFFF766FD401B02283A
:1008F000F6D9C6E00027C4F2422700203866FFF789
:100900005BFD022D05460BD13068800140F1BE80B1
:10091000FFF752FD401B02284FF00300F4D968E7AF
:10092000306880017FF564AFFFF746FD401B022869
:100930004FF00300F4D95CE740F20C00C2F2000073
:10094000006844F6D351C1F26201A0FB0101480ADC
:10095000019000BF00BF0198411E002801913FF4A3
:100960002FAF00BF0198411E002801913FF428AF2E
:1009700000BF0198411E002801913FF421AF00BF44
:100980000198411E00280191E4D119E7002101607E
:10099000FFF712FD054600BF306880077FF50DAFF9
:1009A000FFF70AFD401B02284FF00300F4D920E7AF
:1009B000306A20F001003062306A20F004003062BA
:1009C000FFF7FAFC054641F2883700BF306A80071E
:1009D00020D5FFF7F1FC401BB8424FF00300F5D9DA
:1009E00007E700BF306A40F004003062306A40F030
:1009F00001003062FFF7E0FC054641F2883700BF96
:100A0000306A800706D4FFF7D7FC401BB842F7D9FD
:100A100037E000BFB8F1000F7FF4D5AEF06920F0E9
:100A20008050F061CFE600BF306820F48030306045
:100A3000306820F480203060FFF7BEFC054600BF20
:100A4000306880037FF59DAEFFF7B6FC401B64283D
:100A50004FF00300F4D9CCE6306840F480203060D9
:100A6000306840F480303060FFF7A6FC054600BFD8
:100A7000306880033FF585AEFFF79EFC401B64287D
:100A8000F6D9032002B0BDE8F08100BF206AB0F5BE
:100A9000803F05D17168A26821F400311143716073
:100AA0007168626A21F47411114308437060012077
:100AB0003866FFF781FC0446306880013FF598AE48
:100AC000FFF77AFC001B02284FF00300F4D990E6F0
:100AD000411E0020B0EB116F1CBF012070474EF289
:100AE0001002CEF2000251604EF62351CEF2000108
:100AF000F0230B700721906011607047B0B590F83B
:100B00003C20012A04BF0220B0BD01F108053CCD04
:100B1000D1E900CE23F47C5322F470521A432EF410
:100B2000F0431A432CF4E0431A4324F4C0431A431D
:100B30002A43C96922F480420368114359640021A1
:100B400080F83C100846B0BD10B590F83C20012A52
:100B50004FF0020233D080F83D200268D2F804E062
:100B6000D2F808C00C682EF07003234340F2FF74E3
:100B7000C4F20004A24253600ADCB2F1804F13D0E9
:100B800040F20043C4F200039A420DD011E000BFCE
:100B900042F60043C4F201039A4205D040F6000336
:100BA000C4F200039A4204D149682CF0800319432F
:100BB00091600121002280F83D1080F83C20104611
:100BC00010BD0000002804BF0120704710B5044686
:100BD00090F83D0028B9002084F83C00204600F041
:100BE00067F8022084F83D00206840F2FF73026835
:100BF000C4F2000342F6004C9842C4F2010C15DC2A
:100C0000B0F1804F1AD040F20041C4F20001884296
:100C100014D0984218DCB0F1804F1DD040F2004152
:100C2000C4F20001884217D01AE000BF604505D029
:100C300040F60001C4F200018842EAD1A16822F026
:100C400070020A439842E6DD604505D040F6000197
:100C5000C4F20001884203D1216922F440720A43A0
:100C6000A36922F08001D4F804E0E26819436045EA
:100C70000160C262C0F828E002D16169CCF830108E
:100C800001214161002084F8461084F83E1084F868
:100C90003F1084F8401084F8411084F8421084F822
:100CA000431084F8441084F8451084F83D1010BDBA
:100CB00081B0006842F60041C4F20101884201D0CF
:100CC00001B0704741F21800C4F20200016841F41B
:100CD00000610160006800F400600090009801B0BD
:100CE0007047000080B590F83C20012A4FF00202C6
:100CF00000F0BF8080F83D20D0F800C04FF677723A
:100D0000DCF8083023EA0202CCF808200B683F2BFD
:100D10001CDD5F2B20DD602B50D0B3F5005F6DD064
:100D2000702B40F0A080D1E901E3C968DCF808200D
:100D300043EA0E0322F47F4243EA01211143CCF837
:100D40000810DCF8081041F077018AE01F2B29DC3D
:100D500063B3102B2AD086E0402B63D0502B40F099
:100D60008280D1F804E0C968DCF82030DCF820206B
:100D700022F00102CCF82020DCF8182022F0F0024A
:100D800042EA011123F00A0242EA0E02CCF81810DE
:100D9000CCF82020DCF8081041F0570121F02001A8
:100DA0005FE000BF202B01D0302B5CD1DCF80810B5
:100DB00021F07001194341F0070152E0D1F804E03D
:100DC000C968DCF8203023F01003CCF82030DCF8C0
:100DD0001830DCF8202023F4704322F0A00243EA0C
:100DE000013142EA0E12CCF81810CCF82020DCF8C1
:100DF000081041F0670121F0100132E0D1E901E370
:100E0000C968DCF8082043EA0E0322F47F4243EA73
:100E100001211143CCF80810DCF8081041F480419E
:100E20001FE000BFD1F804E0C968DCF82030DCF82E
:100E3000202022F00102CCF82020DCF8182022F03B
:100E4000F00242EA011123F00A0242EA0E02CCF853
:100E50001810CCF82020DCF8081041F0470121F0F0
:100E60003001CCF808100121002280F83D1080F8F4
:100E70003C20104680BD00002DE9F04390F83C3046
:100E8000012B04BF0220BDE8F0834FEAB202032A1F
:100E900000F2E980DFE802F0023A78B4036842F633
:100EA00000461A6AC4F2010622F001021A621D6AA3
:100EB0001A465C6852F818CFB3428E68D1F800E049
:100EC00025F0020545EA06050CD1CE68D1E9057882
:100ED00024F4407425F00C0526F004063C43354309
:100EE00044EA08042CF0730747EA0E075C609F6130
:100EF0004F6809695F631D629F6947F008079F613A
:100F00009F6927F004079F61AAE000BF036842F6CB
:100F100000461A6AC4F2010622F010021A621D6A23
:100F20001A46D3F804C052F8184FB3428E68D1F86D
:100F300000E025F0200545EA061510D1CE68D1E97C
:100F4000058725F0C0096FF0400505EA06152CF469
:100F5000406647EA080745EA090546EA870C24F493
:100F6000E64444EA0E27C3F804C09F614F6809694C
:100F70009F631D629F6947F400679F619F6927F423
:100F800080679F616BE000BF036842F600461A6A03
:100F9000C4F2010622F480721A621D6A1A46D3F85E
:100FA00004C052F81CEFB3428E680C6825F400753B
:100FB00045EA062511D1CE68D1E9058725F44069B7
:100FC000360240F2FF4526EA05052CF4405647EA72
:100FD000080745EA090546EA071C2EF07307274370
:100FE000C3F804C0DF614F680969DF631D62DF6910
:100FF00047F00807DF61DF6927F00407DF612FE0B2
:10100000036842F600471A6AC4F2010722F48052CC
:101010001A621A46D3F820C05D6852F81C4FD1F806
:1010200000E08E68BB4204D14F6925F4804545EA53
:1010300087152CF4005747EA063724F4E64646EABB
:101040000E265D60DE614E6809691E641F62DF69FD
:1010500047F40067DF61DF6927F48067DF61090219
:10106000136819431160002180F83C100846BDE860
:10107000F0830000002804BF0120704710B504462B
:1010800090F83D0028B9002084F83C00204600F08C
:1010900067F8022084F83D00206840F2FF73026880
:1010A000C4F2000342F6004C9842C4F2010C15DC75
:1010B000B0F1804F1AD040F20041C4F200018842E2
:1010C00014D0984218DCB0F1804F1DD040F200419E
:1010D000C4F20001884217D01AE000BF604505D075
:1010E00040F60001C4F200018842EAD1A16822F072
:1010F00070020A439842E6DD604505D040F60001E3
:10110000C4F20001884203D1216922F440720A43EB
:10111000A36922F08001D4F804E0E2681943604535
:101120000160C262C0F828E002D16169CCF83010D9
:1011300001214161002084F8461084F83E1084F8B3
:101140003F1084F8401084F8411084F8421084F86D
:10115000431084F8441084F8451084F83D1010BD05
:101160007047000041B1082910D0042914BF00F1D4
:10117000410200F13F020BE090F83E20012A1CBF23
:1011800001207047022280F83E2013E000F1400267
:101190001278012A1CBF012070470222082907D0BB
:1011A000042914BF80F8412080F83F2002E000BFEE
:1011B00080F84020006801F01F010122036A8A4084
:1011C00023EA02010162036A42F64441C4F20101CA
:1011D0001A43A1F14403984202620FD040F2FF711A
:1011E000C4F20001884213DCB0F1804F1CD040F201
:1011F0000041C4F20001884216D01CE00A6842F4A3
:1012000000420A6040F2FF71C4F200018842EBDD47
:1012100042F60041C4F20101884205D040F60001C7
:10122000C4F20001884206D1816801F00701062955
:1012300004BF00207047016841F0010101600020F7
:1012400070470000002804BF0120704710B5044615
:1012500090F83D0028B9002084F83C00204600F0BA
:1012600061F8242084F83D002068D4E90212C368A4
:1012700023F40053C360036923F440531A4302610B
:10128000D4E904231143C268194341F20C639A4321
:101290001143C1604169A26921F44071114343F6D1
:1012A0000002C4F201029042416103D0FFF70EFA3E
:1012B00002E000BFFFF71EFA62681921484391005F
:1012C000B0FBF1F048F21F51C5F2EB11A0FB012376
:1012D0005A094FF69C73C0F6FF7302FB03003223DA
:1012E00003EB0010A0FB0101F02303EA5113206877
:1012F00003EB0212C1F3431111448160016921F42F
:1013000090410161416921F02A014161C16841F4C4
:101310000051C16000202021206484F83D1084F831
:101320003E1010BD70B586B040F60044C4F2010412
:10133000006804F5305100268842049602D006B0B9
:1013400070BD00BF41F21800C4F20200016802AD96
:1013500041F480410160016801F4804101910199EB
:10136000016841F0080101600068294600F00800AA
:1013700001900198402002900220039003200590E4
:101380002046FEF7FFFE8020CDE9020620462946D2
:101390000496FEF7F7FE0420C4F20100016841F054
:1013A000E06141F00401016006B070BD2DE9F0413B
:1013B000044690F83D0020280ED10D4600294FF03C
:1013C000010000F08E801646002A08BFBDE8F081BB
:1013D00094F83C00012803D10220BDE8F08100BF51
:1013E000012084F83C00002020642120984684F8E5
:1013F0003D00FEF7E1FFA684E684A1680646B1F54C
:10140000805F03D12069002800F0A0802F460025CE
:10141000002084F83C00E08CE0B118F101001BD002
:10142000B8F1000F60D120680BE000BF35F8021B57
:1014300000276FF35F214160E18C0139E184E18C89
:1014400051B3016809066DD5002FEFD017F8011BC5
:10145000F1E700BF20681FE0206802E0016809068C
:1014600009D40168090606D4016809065CBF016851
:101470005FEA0161F2D51FB117F8011B05E000BF5B
:1014800035F8021B00276FF35F214160E18C0139C1
:10149000E184E18C0029E4D1016849061DD4B8F14A
:1014A000000F3FD018F101010ED10168490614D494
:1014B000016849065CBF01685FEA41610DD40168BB
:1014C0004906F2D509E000BFFEF776FF811B2068D0
:1014D000414527D800684006F6D5202084F83D0015
:1014E0000020BDE8F08100BF206800BF0168090648
:1014F00006D4FEF761FF811B20684145F6D911E053
:1015000017B117F8011B04E035F8021B00276FF331
:101510005F214160E18C0139E184E18C0029E5D152
:10152000BAE700BFC16821F4D071C160416921F000
:1015300001014161202084F83D0084F83E00002034
:1015400084F83C000320BDE8F08100BF00275FE77E
:10155000FEE70000F0B585B041F21800C4F20200C9
:10156000016840F6000441F0100101600168C4F216
:10157000010401F01001019101990168002241F07C
:1015800020010160016841F2012501F02001019173
:1015900001990168002641F004010160016801F031
:1015A000040101910199016841F00801016000689E
:1015B00041F2012100F00800019001982046FEF759
:1015C000F5FE022001950390032001AD0127049050
:1015D000204629460297FEF7D5FD1E2001A9C1C16C
:1015E00020462946FEF7CEFD05B0F0BD70B59CB093
:1015F00042F6004540F21000C4F201050021C2F29B
:101600000000472209231691CDE914111191CDE96B
:101610000F11CDE90D11CDE90B11CDE90911CDE97E
:101620000711CDE90511CDE90311CDE90111C0E99B
:101630000052C0E90213C0E904118161FFF7C2FA48
:10164000002818BFFEF784FD4FF48050139040F23D
:101650001000C2F2000013A9FFF744FB002818BFD6
:10166000FEF776FD40F21000C2F20000FFF702FD27
:10167000002818BFFEF76CFD40F210000024C2F2F3
:10168000000010A9CDE91044FFF75EFA002818BF4A
:10169000FEF75EFD602009900320CDE90A0440F2C8
:1016A0001000C2F2000009A90022CDE90C44CDE9E6
:1016B0000E44FFF7E1FB002818BFFEF749FD40F29A
:1016C00010044FF40050C2F200040026069001A955
:1016D00020460596CDE90366CDE901660896FFF739
:1016E0000DFA002818BFFEF733FD20681A96A842AD
:1016F00002D01CB070BD00BF41F21800C4F202005D
:10170000016841F004010160006818A900F00400BC
:10171000179017984FF480701890022019901B9022
:10172000A5F51050FEF72EFD1CB070BD80B540F23F
:10173000580043F60001C2F20000C4F20101002388
:101740004FF00C0C4FF4165280E80E00C0E9033342
:10175000C0E905C3C361FFF775FD002808BF80BD60
:10176000BDE88040FEF7F4BCFEE70000FEE70000A5
:101770007047000070470000FEF724BE704700006D
:10178000FEE7000080B582B0019040F25800C2F23E
:10179000000001A901224FF6FF73FFF707FE019831
:1017A00002B080BD90B0FEF71BFE00240120CDE901
:1017B0000B44CDE9094406900A904FF4E0104FF431
:1017C000803102250F9006A8CDE90714CDE90D510F
:1017D000FEF7A4FF20B1EFF3108072B6FEE700BF62
:1017E0000F20CDE901054FF48060CDE9040401A884
:1017F00002210394FEF78AFE20B1EFF3108072B647
:10180000FEE700BF40F60004C4F20104FFF7A2FEA9
:10181000FFF7ECFEFFF78AFF40F21005C2F2000569
:10182000284600210026FFF79DFC0FF2E0083BA7A9
:101830000FF2B80B4FF0030A0CE000BF28684FF01E
:10184000090AC0F834A02DA000F07CF84FF47A709B
:10185000FEF784FC20461021FEF7A2FD90B1204641
:101860000821FEF79DFD68B1F00711D1404600F058
:1018700069F82868032141634FF0030AC0F834A0D7
:101880003846E1E73220FEF769FC0136F007EDD07B
:10189000584600F057F820460421FEF781FD38B184
:1018A00020460221FEF77CFD40B94FF6FD7901E0AC
:1018B0004FF003093220FEF751FCCA441FFA8AF0A8
:1018C0000928BBD0062803D0032809D12868D3E70C
:1018D00028684FF0060AC0F834A00AA0B4E700BF99
:1018E00028684FF0030AC0F834A0AFE741746F6D69
:1018F000697A65723A204F4E0000000047656172B8
:101900003A203200476561723A20310041746F6DB0
:10191000697A65723A204F46460000004765617259
:101920003A20300002E008C8121F08C1002AFAD18C
:1019300070477047002001E001C1121F002AFBD14F
:101940007047000010B5044601E0FFF71BFF14F8D4
:10195000010B04490028F8D1BDE810400A20FFF728
:1019600011BF000000000020010200000000000084
:10197000000001020304060708090000000001023C
:10198000030402030405060708090A0B0C0D0E0FD9
:1019900010100000B819000800000020100000001E
:1019A00024190008C8190008100000209004000045
:1019B00034190008000000000000000001000000D1
:0819C000100000000024F400F7
:04000005080000ED02
:00000001FF
